:020000040800F2
:10000000502300209D010008091F0008451B00081F
:10001000351E0008490700080927000800000000F5
:1000200000000000000000000000000005010008C2
:100030004B0700080000000049010008912100085A
:10004000B7010008B7010008B7010008B7010008B0
:10005000B7010008B7010008B7010008B7010008A0
:10006000B7010008B7010008B7010008B701000890
:10007000B7010008B7010008B7010008B701000880
:10008000B7010008B7010008B7010008B701000870
:10009000B7010008B7010008B7010008B701000860
:1000A000B7010008B7010008B7010008B701000850
:1000B0000D220008B701000819220008B701000846
:1000C000B7010008B7010008B7010008B701000830
:1000D000B7010008CD260008B7010008B7010008E5
:1000E000B7010008B7010008B7010008DFF810D019
:1000F00000F018FB0048004751300008AFF30080C3
:1001000050230020224B19680868B0E8F00F80F3F4
:100110000988BFF36F8F4FF0000080F311884EF015
:100120000D0E70470000000006480068006880F36C
:10013000088862B661B6BFF34F8FBFF36F8F00DFE1
:1001400000BF00BF08ED00E0EFF30980BFF36F8F41
:100150000F4B1A6820E9F00F106008B54FF05000FF
:1001600080F31188BFF34F8FBFF36F8F03F078FEDA
:100170004FF0000080F31188BDE808401968086856
:10018000B0E8F00F80F30988BFF36F8F704700BFAE
:100190002C000020EFF305807047000006488047E0
:1001A00006480047FEE7FEE7FEE7FEE7FEE7FEE75C
:1001B000FEE7FEE7FEE7FEE709220008ED00000883
:1001C0002DE9F05F0546002092469B46884606468C
:1001D000814640241BE0284641464746224600F01F
:1001E00020F853465A46C01A914110D3114618467A
:1001F000224600F001FA2D1A67EB01084F4622460D
:100200000120002100F0F8F917EB00094E41201EF3
:10021000A4F10104DFDC484631462A464346BDE8E6
:10022000F09F202A04DB203A21FA02F000217047D7
:1002300021FA02F3D040C2F120029140084319464E
:10024000704740EA01039B0703D009E008C9121F69
:1002500008C0042AFAD203E011F8013B00F8013B80
:10026000521EF9D27047D2B201E000F8012B491EAC
:10027000FBD270470022F6E710B513460A46044643
:100280001946FFF7F0FF204610BD2DE9FE4F8046CE
:1002900081EA0300C00F0C46009021F0004123F0DA
:1002A0000045B8EB0200A94105D2404621469046E0
:1002B0001C460B46024623F00040104347D0270D52
:1002C000C7F30A00C3F30A510290401A0190402874
:1002D0006BDAC3F3130040F4801B0098924620B100
:1002E0000023D2EB030A63EB0B0B01985946C0F1D4
:1002F0004002504600F080F906460D4650465946E9
:10030000019A00F088F910EB08006141002487EAA7
:10031000115284EAE7731A4340D0009A62B3019AFB
:10032000012A4FEA075215DC001B61EB02014FF076
:10033000004202EA0752CDE90042001C41F580115B
:1003400032462B4600F088F903B0BDE8F08F4046F6
:100350002146F9E7001B61EB0201001C41F5801307
:1003600000185B412018A2F5001747EB030140EA93
:10037000D570B6196D4111E06D084FEA360645EAB1
:10038000C0754FEA0752001B61EB0201001C41F5EA
:10039000801149084FEA30000019514132462B467E
:1003A00003B0BDE8F04F00F048B9009801224000CA
:1003B0000023D0EB020263EBE073009821464FEA82
:1003C000E074B8EB000061EB0401E9E783F000435F
:1003D0005BE781F0004158E72DE9FE4F81EA030415
:1003E00004F0004421F0004100944FF0000B23F092
:1003F000004350EA01045ED052EA03045BD0C3F329
:100400000A54C1F30A552C44A4F2F3340194A0FB1E
:100410000254C1F3130141F48011C3F3130343F4F5
:10042000801301FB024400FB034E840A970A44EA4E
:10043000815447EA8357A4FB076802958D0A05FBA0
:1004400007854FEA932C04FB0C542705029D4FEAC5
:10045000065847EA1637B5EB08056EEB070C870E12
:10046000920E47EA811742EA8312A7FB0201B6EB1C
:100470000B0164EB00042B0D43EA0C335E1844EBD4
:100480001C50DA465146E7FB0201C5F313044FEA5C
:100490000B3343EA14534FEA0432019C43EA060348
:1004A000A4F10C040294009CCDE900B400F0D4F84F
:1004B00003B0BDE8F08F00200146F9E72DE9F04DCB
:1004C00081EA030404F0004B21F0004514464FF08C
:1004D000000A23F0004150EA050220D054EA01024C
:1004E0001DD0C5F30A570246C5F31303C1F3130029
:1004F000C1F30A5640F4801543F48013A7EB0608B5
:10050000101BD64608F2FD3873EB050002D308F144
:10051000010801E092185B41B8F1000F03DA0020F6
:100520000146BDE8F08D00204FF480110646844658
:100530000EE0171B73EB050705D3121B63EB0503D6
:1005400006434CEA010C49084FEA300092185B411F
:1005500050EA0107EDD152EA030012D082EA04000A
:1005600083EA0501084305D0101BAB4106D20122E6
:10057000002306E000224FF0004302E06FF001028A
:1005800053101AEB06004CEB085110EB0A0041EB3C
:100590000B01BDE8F04D00F050B8000030B5041E6E
:1005A00071F1000404DB4FF00044404264EB0101B0
:1005B000141E73F1000405DB1C464FF00043524249
:1005C00063EB0403994208BF904230BD30B50B463F
:1005D000014600202022012409E021FA02F59D4273
:1005E00005D303FA02F5491B04FA02F52844151E47
:1005F000A2F10102F1DC30BD202A04DB203A00FA2E
:1006000002F1002070479140C2F1200320FA03F369
:10061000194390407047202A06DBCB17203A41FA55
:1006200002F043EAE07306E041FA02F3D040C2F17F
:100630002002914008431946704710B5141E73F10B
:10064000000408DA401C41F1000192185B411A4392
:1006500001D120F0010010BD2DE9F04D92469B46DE
:1006600011B1B1FA81F202E0B0FA80F22032904684
:10067000FFF7C2FF04460F4640EA0A0041EA0B01B9
:1006800053465A46084313D0114653EA010019D085
:10069000C8F140025046FFF7C4FD05460E465046DD
:1006A00059464246FFF7A8FF084305D0012004E061
:1006B00020463946BDE8F08D0020054346EAE07645
:1006C0002C4337430A986305E40AA0EB0800002294
:1006D000FD0A44EA47540A3002D500200146E9E702
:1006E000010510196941DDE9084500196941BDE8B6
:1006F000F04DA2E7C1F30A52C1F3130140F2FF33F8
:1007000041F480119A4202DA00200146704740F21B
:1007100033439A42A2F2334202DC5242FFF781BDD8
:10072000FFF76ABF064C074D06E0E06840F00103A2
:1007300094E8070098471034AC42F6D3FFF7DAFC90
:10074000D0480008F0480008FEE7704772B6FEE7A0
:100750001248C178491CCAB20021C270642A03D36E
:10076000C1708278521C827082783C2A03D38170D7
:100770004278521C427042783C2A03D3417002787E
:10078000521C02700278182A00D1017001790129E7
:1007900002D1C188491CC1807047000010000020B0
:1007A00010B590F821100022022905D004218163A0
:1007B00080F82020012010BD01680B6823F00E0393
:1007C0000B6001680B6823F001030B6090F8403068
:1007D000C46B012101FA03F3636080F8211080F8F3
:1007E0002020104610BD000010B590F82110002404
:1007F000022903D00421816301243DE001680A68D5
:1008000022F00E020A6001680A6822F001020A6002
:100810001A4A0168914201D1012121E0174A14329C
:10082000914201D110211BE0144A2832914201D19A
:10083000891515E0114A3C32914201D189140FE02B
:100840000E4A5032914202D14FF4803108E00B4AF7
:100850006432914202D14FF4801101E04FF0807177
:10086000064A083A5160012180F82110002180F8E1
:100870002010416B01B18847204610BD080002409E
:100880002DE9F84FDFF8B8910024A9F1040B2346B5
:100890000F2709F1040AABF1040EC9E00125A540B8
:1008A0002A40AA427DD1674ED1F804C0ACEB0608BD
:1008B000B44532D014DCBCF1030F3AD009DCBCF1F2
:1008C000000F2AD0BCF1010F1CD0BCF1020F31D1B6
:1008D0001DE0BCF1110F17D0BCF1120F2AD119E0A5
:1008E000B8F5881F19D006DCB8F5803F15D0B8F5EB
:1008F000801F1FD111E0B8F5001F0ED0B8F5041FFE
:1009000018D10AE0CB6815E0CB681B1D12E0CB685C
:1009100008330FE0CB680C330CE08B682BB1012B54
:100920004FF0080303D0456104E0042302E00561B1
:1009300000E00023FF2A01D8064601E000F104068A
:100940004FEA840501D9A5F12005D6F8008007FA01
:1009500005FC28EA0C0803FA05F548EA0508C6F87C
:1009600000804D68ED0062D5374DAE6946F0010656
:10097000AE61AD6924F0030605F001050095334D25
:1009800006EB050CDCF80850A607360F07FA06F848
:1009900025EA0805DFF8B880404503D14FF000088C
:1009A00017E044E0DFF8AC80404502D14FF0010889
:1009B0000FE0DFF8A480404502D14FF0020808E0C4
:1009C000DFF89880404502D14FF0030801E04FF076
:1009D000040808FA06F848EA0508CCF808804D68CB
:1009E000D9F80060ED024D4601D5164300E096436C
:1009F0002E604D68DAF80060AD02554601D5164309
:100A000000E096432E604D68DBF80060AD035D4664
:100A100001D5164300E096432E604D68DEF8006075
:100A2000ED03754601D5164300E096432E60641C25
:100A30000D682A46E5407FF431AFBDE8F88F00002D
:100A400008040140000011100010024000000140A5
:100A500000080140000C014000100140001401405A
:100A60008068084000D001207047C26821EA020374
:100A70000A4043EA0241016170470AB101617047CF
:100A80000904FBE701488068704700001C00002053
:100A90000248816802781144816070471C00002080
:100AA000074810B5016841F010010160032000F013
:100AB000A7F8002000F006F800F050F8002010BD64
:100AC0000020024030B505461F4887B0C16941F09B
:100AD0000401C161C06906A900F00400009001A8EA
:100AE00000F036F90498B0B100F052F9400017490F
:100AF000174AB0FBF1F11748491E0260416040F20D
:100B0000E7320021C0E903218160816100F076FBBA
:100B1000040003D015E000F03BF9E8E70D4800F0D1
:100B2000C3FB04000DD11E2000F03CF8102D07D2AD
:100B3000002229461E2000F043F80748056000E027
:100B4000012407B0204630BD0010024040420F0093
:100B50000008004034020020200000200F4808B5A3
:100B6000816941F001018161816901F00101009118
:100B7000C16941F08051C161C069002200F080501C
:100B800000900F21901E00F01BF80548416821F0ED
:100B9000E06141F00071416008BD000000100240BA
:100BA00000000140002809DB00F01F0201219140F4
:100BB0004009800000F1E020C0F8001170470000FB
:100BC000F0B40E4B1B680C46C3F30223C3F10705B8
:100BD000042D00D90425191D072901D2002300E0A6
:100BE000DB1E012606FA05F1491E214099409E4070
:100BF000761E16403143F0BC01F0B2BD0CED00E0B2
:100C0000064900F0070208684FF6FF03184040EA63
:100C10000220034A10430860704700000CED00E01A
:100C20000000FA052DE9F0470F46050061D0434E5C
:100C3000306800F00700B84209D2306820F00700A1
:100C400038433060306800F00700B84251D128685E
:100C50003B4C810712D5400703D5606840F4E06043
:100C600060602878000703D5606840F460506060D9
:100C70006068A96820F0F000084360602878C00729
:100C800028D06868012810D02168022810D0890770
:100C900000292EDA616821F0030101436160FFF74A
:100CA000F1FE804641F288390DE021688903EFE7C3
:100CB0008901EDE7FFF7E6FEA0EB0801494502D9FF
:100CC0000320BDE8F0876068696800F00C00B0EBB5
:100CD000810FEFD1306800F00700B8420BD93068BF
:100CE00020F0070038433060306800F00700B84259
:100CF00001D00120E5E72878400705D56068E9685C
:100D000020F4E060084360602878000706D560683A
:100D1000296920F4605040EAC100606000F058F892
:100D20006168084AC1F30311515CC8400649086074
:100D300006480068FFF7C6FE0020C2E70020024018
:100D400000100240A64800082800002020000020D3
:100D50000F2202600C4A536803F003034360536898
:100D600003F0F0038360536803F4E063C3605268E8
:100D70004FF4E06303EAD20202610448006800F025
:100D80000700086070470000001002400020024089
:100D90000448054900684968044AC1F30221515CCE
:100DA000C84070472800002000100240B6480008E4
:100DB0000448054900684968044AC1F3C221515CEE
:100DC000C84070472800002000100240B6480008C4
:100DD0000E4A51680E4801F00C03042B11D0082B69
:100DE0000FD10C48C1F38343C903C05C0AD55168D5
:100DF000084AC1F34041921E515C054A5043B0FB82
:100E0000F1F0704704494843704700000010024069
:100E100000127A009648000800093D002DE9F84FBD
:100E2000040070D02078C04DC00749D06868C0F376
:100E30008100012807D06868C0F38100022809D129
:100E40006868C00306D52868800339D56068002823
:100E5000E7D035E06068B0F5803F0BD010B1B0F559
:100E6000A02F11D0286820F480302860286820F452
:100E7000802002E0286840F480302860606890B1EB
:100E8000FFF700FE06460AE0286840F4802028604C
:100E9000F0E700BFFFF7F6FD801B642873D82868D1
:100EA0008003F7D50CE0FFF7EDFD064605E000BF37
:100EB000FFF7E8FD801B6428F0D828688003F7D48A
:100EC00020789A4E80074FF001094FF0000839D57D
:100ED000686810F00C0F07D06868C0F38100022822
:100EE00009D16868C00306D42868800714D5206932
:100EF000012808D110E02069B0B1C6F80090FFF7D2
:100F0000C1FD074605E00AE1FFF7BCFDC01B022852
:100F1000C4D828688007F7D52868616920F0F800F0
:100F200040EAC10028600DE0C6F80080FFF7AAFD86
:100F3000074604E0FFF7A6FDC01B022823D8286857
:100F40008007F7D4207800072CD57948A169D9B15A
:100F5000C0F80090FFF796FD074604E0FFF792FD0A
:100F6000C01B02280FD8686A8007F7D571484FF474
:100F7000FA510068B0FBF1F0009000BF0098411EEC
:100F80000091FAD20EE080E0C0F80080FFF77AFD11
:100F9000074604E0FFF776FDC01B022875D8686A93
:100FA0008007F7D42078400760D5E8690027C000A3
:100FB00008D4E86940F08050E861E869012700F052
:100FC000805000905C480168C90513D401688346CD
:100FD00041F480710160FFF755FD824606E000BFD5
:100FE000FFF750FDA0EB0A0064284ED8DBF80000A4
:100FF000C005F5D5E06801280AD008B1052813D04E
:10100000286A20F001002862286A20F0040002E02B
:10101000286A40F001002862E06841F2883B98B1FC
:10102000FFF730FD82460BE0286A40F0040028629A
:10103000EEE700BFFFF726FDA0EB0A0159455AD89D
:10104000286A8007F6D50CE0FFF71CFD824605E014
:10105000FFF718FDA0EB0A0159454CD8286A800714
:10106000F6D41FB1E86920F08050E861E06988B3E8
:101070006968C1F38101022944D00228C6F8608062
:1010800004D0FFF7FFFC044638E034E0FFF7FAFC39
:10109000074604E0FFF7F6FCC01B02282BD828689F
:1010A0008001F7D4206AB0F5803F05D16868A16857
:1010B00020F4003008436860D4E9080108436968F7
:1010C00021F4741108436860C6F86090FFF7DAFCF9
:1010D000044606E025E000BFFFF7D4FC001B022811
:1010E00009D828688001F7D51BE000BFFFF7CAFCCC
:1010F000001B022802D90320BDE8F88F2868800170
:10110000F4D40EE00128F7D06868226A00F4803138
:10111000914204D1616A00F47010884201D001202C
:10112000EAE70020E8E70000001002400000424229
:101130008004424228000020007000407047704741
:1011400010B590F83C20012A22D0012280F83C20E2
:10115000CA688C6822F4407222434C6822F4806290
:1011600022430C6822F4006222430C6922F480526C
:1011700022434C6922F400522243C969002322F41D
:1011800080420A4301684A6480F83C30002010BD68
:10119000022010BD70B590F83C20012A26D0012411
:1011A00080F83C40022280F83D2003685A689D6820
:1011B00022F070060A6832435A600D4B02689A4268
:1011C00008D0B2F1804F05D00A4B9A4202D00A4BA8
:1011D0009A4204D1496825F080031943916080F850
:1011E0003D40002180F83C10084670BD022070BDD3
:1011F000002C0140000400400008004010B504002D
:1012000003D094F83D0010B107E0012010BD00208C
:1012100084F83C00204600F01FF8022084F83D00CE
:10122000211D206800F0FEFF012084F8460084F8AC
:101230003E0084F83F0084F8400084F8410084F8C0
:10124000420084F8430084F8440084F8450084F8A0
:101250003D00002010BD000008B5114A016811488A
:10126000914208D1816941F400618161806900F493
:101270000060009008BDB1F1804FFBD1C16941F021
:101280000101C161C069002200F001000090052148
:101290001C20FFF795FCBDE808401C20FFF782BC2E
:1012A000002C01400010024090F83D10012901D0AF
:1012B00001207047022180F83D100168CA6842F0A1
:1012C0000102CA6000680B49884208D0B0F1804F23
:1012D00005D00949884202D00849884204D1816872
:1012E00001F00701062903D0016841F00101016006
:1012F00000207047002C014000040040000800401E
:1013000070B5044690F83C000025012817D001264E
:1013100084F83C60022084F83D002068826822F056
:10132000770222F47F4282600868502838D00DDCB2
:1013300020284FD005DC90B3102811D14AE00220BC
:1013400070BD302846D040280AD13BE060282FD01D
:1013500070280DD0B0F5805F03D0B0F5005F12D0DB
:10136000012584F83D60002084F83C00284670BDCB
:10137000CB68D1E90121206800F090FF20688168E6
:1013800041F0770109E0CB68D1E90121206800F044
:1013900085FF2068816841F480418160E1E719E0C0
:1013A000CA684968206801F02DF85021206806E0DD
:1013B000CA684968206801F036F86021206800F0AA
:1013C00077FFCEE7CA684968206801F01BF8402122
:1013D0002068F4E7226801461046F0E770472DE9DF
:1013E000F04104460068C66805694FF00007A90788
:1013F00013D5B10711D5F91E0161012020772068AE
:1014000080698007204602D0FFF7E8FF04E000F083
:10141000A5F8204600F037F92777680716D570073A
:1014200014D521686FF0040008610220207720683D
:10143000806910F4407F204602D0FFF7CFFF04E020
:1014400000F08CF8204600F01EF92777280715D504
:10145000300713D521686FF0080008610420207759
:101460002068C0698007204602D0FFF7B7FF04E07C
:1014700000F074F8204600F006F92777E80616D544
:10148000F00614D521686FF010000861082020775D
:101490002068C06910F4407F204602D0FFF79EFF0D
:1014A00004E000F05BF8204600F0EDF82777E8074D
:1014B00008D0F00706D021686FF0010008612046CF
:1014C00000F0E2F8280608D5300606D521686FF04E
:1014D000800008612046FFF731FE680608D57006D7
:1014E00006D521686FF040000861204600F0E0F862
:1014F000A8060AD5B00608D521686FF0200008615B
:101500002046BDE8F041FFF71ABEBDE8F0810000BB
:1015100000B585B00021009101910291039100680E
:101520000B49884212D10B48816941F00401816165
:101530008069694600F0040004904FF480700090C8
:101540000220019003900448FFF79AF905B000BD0E
:10155000002C01400010024000080140704770B5A7
:10156000044690F83C0000260D4601280FD00120CB
:1015700084F83C006AB1042A1DD0082A2FD00C2A16
:101580003FD00126002084F83C00304670BD022088
:1015900070BD206800F094FE2068816941F0080168
:1015A00081612068816921F004018161206881697D
:1015B0002A69114311E0206800F0AAFE20688169C1
:1015C00041F4006181612068816921F48061816159
:1015D000206881692A6941EA02218161D2E7206895
:1015E00000F0C2FE2068C16941F00801C1612068B5
:1015F000C16921F00401C1612068C1692A691143F0
:1016000011E0206800F0DCFE2068C16941F400614F
:10161000C1612068C16921F48061C1612068C1692C
:101620002A6941EA0221C161ACE710B5040003D088
:1016300094F83D0010B107E0012010BD002084F8AF
:101640003C00204600F01EF8022084F83D00211DD9
:10165000206800F0E7FD012084F8460084F83E0091
:1016600084F83F0084F8400084F8410084F8420088
:1016700084F8430084F8440084F8450084F83D0071
:10168000002010BD7047704710B504460068074938
:10169000884201D1FFF7FCF92068B0F1804F03D1F7
:1016A000BDE81040FFF754B810BD0000000800402E
:1016B000704718B5034690F84200202801D0022058
:1016C00018BD61B15AB10120186300205863184653
:1016D00000F0A8FF0028F3D1196B012901D00120E7
:1016E00018BD19680A684968009119680C3151E8F9
:1016F000002F42F0100241E80024002CF5D118BD63
:1017000070477047F8B5016804460868CA684B69B5
:1017100010F00F0F4FF0000559D003F0010602F44E
:101720009077374365D0C10705D0D10503D5616CEB
:1017300041F001016164410705D5D90703D0616C0F
:1017400041F002016164810705D5D90703D0616CBE
:1017500041F004016164010707D502F02001314323
:1017600003D0616C41F008016164616C00293AD0DA
:10177000800604D5900602D5204600F095FE20682C
:101780004069616CC0F38010090700D460B3204643
:1017900000F063FE20684069400621D520681430BF
:1017A00050E8001F21F0400140E80012002AF5D166
:1017B000E06BA8B16D494163E06BFFF715F80028B5
:1017C00011D0E06B416B01B0BDE8F04008478306E3
:1017D0000FD593060DD52046BDE8F84000F064BE55
:1017E0002046FFF78EFFF8BD2046FFF78AFF6564AD
:1017F000F8BD266B2023012E7CD1C6067AD5D606ED
:1018000078D508684868009048694FF0020640069D
:1018100040D5E16B086840680004000CE8D0A28D58
:101820008242E5D9E085886920282DD020680C30D7
:1018300050E8001F21F4807140E80012002AF5D121
:101840002068143050E8001F21F0010140E8001228
:10185000002AF5D12068143050E8001F21F0400123
:1018600040E80012002AF5D184F842302563206850
:101870000C3050E8001F21F0100140E80012002A4F
:10188000F5D1E06BFEF78CFF6663A08DE18D401A09
:1018900081B22AE0A08DE18D401A81B2E08D00284E
:1018A000A6D00029A4D022680C3252E8000F20F400
:1018B000907042E80007002FF5D12068143050E8FE
:1018C000002F22F0010240E80027002FF5D184F814
:1018D0004230256320680C3050E8002F22F01002BF
:1018E00040E80023002BF5D166632046FFF708FF90
:1018F000F8BDFFE705062BD5150629D594F841005C
:101900002128F5D1A068B0F5805F01D12069B0B180
:10191000206A411C2162216800784860E08C401EEA
:101920000004000CE084E3D12068C16821F080014C
:10193000C1602068C16841F04001C160D8E7206AF9
:101940000088C0F308004860206A801C2062E5E738
:101950004006CDD55006CBD5CA68204622F04002BD
:10196000CA6084F8413000F0ECF8C1E74B2400086D
:1019700070B5040004D094F84100002510B106E0D1
:10198000012070BD84F84050204600F023F8242048
:1019900084F841002068C16821F40051C1602046EC
:1019A00000F0E4FD2068016921F4904101612068A4
:1019B000416921F02A0141612068C16841F4005168
:1019C000C1606564202084F8410084F842006563AA
:1019D000002070BD70B586B000240094019402947C
:1019E00003942B4E03682B49022003222A4DB34255
:1019F00029D18B6943F480438B618B6903F4804365
:101A000004938B6943F004038B618969039201F0AD
:101A1000040104910102CDE9001069462846FEF751
:101A20002FFF2815CDE90004694628460294FEF7E9
:101A300027FF002205212520FFF7C2F82520FFF708
:101A4000B1F806B070BD154EB342FAD1CB6943F47C
:101A50000033CB61CB6903F4003304938B6943F00B
:101A600004038B618969039201F00401049104214C
:101A7000CDE9001069462846FEF702FF0820CDE9AF
:101A80000004694628460294FEF7FAFED9E70000F2
:101A900000380140001002400008014000440040AE
:101AA00070472DE9F843044690F8410098461646E1
:101AB0000D46202802D00220BDE8F88385B17EB112
:101AC00000206064212084F84100FEF7DBFFA6843B
:101AD0008146E684A0682027B0F5805F02D003E04D
:101AE0000120E9E7206910B12E4600250EE000260E
:101AF0000CE08021204600F0B0FDA8B9C6B116F870
:101B0000010B21684860E08C401EE084E08C4B466D
:101B10004FF00002CDF800800028EAD14FF04001DC
:101B2000204600F09AFD40B184F841700320C3E7DD
:101B300035F8020BC0F30800E3E784F84170002099
:101B4000BAE77047FEE700000B4D0C4C4FF4FA76F5
:101B500000F0DCF902212846FEF782FF2070012800
:101B600008D007A000F0D2FD00F08AFA304602F05B
:101B70007BF8EDE705A0F5E7000801400400002030
:101B8000E697A0E4BABA0D0A00000000E69C89E4DA
:101B9000BABA0D0A0000000010B5044A002104483A
:101BA00001F09AFA0349086010BD0000704800086F
:101BB00085210008000000202DE9F04786B00024B0
:101BC00031480094019402940394816941F010011A
:101BD0008161816901F010010491816941F0200166
:101BE0008161816901F020010491816941F0040162
:101BF0008161816901F004010491816941F008016A
:101C000081618069012200F00800204E5503049094
:101C100029463046FEF731FFDFF87490AF100022FE
:101C200039464846FEF729FFDFF868A04FF44078B0
:101C3000002241465046FEF720FF00950125CDE9E0
:101C40000154694630460395FEF71AFE0226CDE997
:101C50000064694648460296FEF712FE0097039616
:101C6000CDE9015469464846FEF70AFE1120CDF839
:101C70000080CDE901040320039069465046FEF739
:101C8000FFFD06B0BDE8F0870010024000100140E3
:101C900000080140000C014010B596B000240F94DC
:101CA00010941194129413941C2108A81494FEF714
:101CB000E1FA20216846FEF7DDFA2848264901604E
:101CC0004721C0E9011440F2E731C0E9031444613F
:101CD0008461FFF793FA08B1FEF738FD4FF48050A6
:101CE0000F900FA91D48FFF70BFB08B1FEF72EFD63
:101CF0001A48FFF79AFC08B1FEF728FD139413A9C0
:101D000016481494FFF746FA08B1FEF71FFD60204D
:101D1000CDE908040A940B940C940D94002208A9B0
:101D20000E480E94FFF71BFC08B1FEF70FFD009460
:101D30004FF40050CDE904400294019403946946A5
:101D400006480794FFF7FCF908B1FEF7FFFC0348CB
:101D5000FFF7DEFB16B010BD002C0140B0000020E4
:101D600010B586B0002416480094019402940394A0
:101D700004944FF080410594016041F61F41C0E991
:101D800001146321C0E903148461FFF737FA08B135
:101D9000FEF7DCFC4FF48050009069460848FFF7DE
:101DA000AFFA08B1FEF7D2FC049404A904480594E4
:101DB000FFF7F0F9002801D0FEF7C8FC06B010BD0F
:101DC000F80000200C4810B50A4901604FF4E131D9
:101DD0004160002181600C22C160C0E90412816170
:101DE000C161FFF7C5FD002803D0BDE81040FEF734
:101DF000ADBC10BD00380140400100200C4810B5BA
:101E00000A4901604FF4E1314160002181600C22F8
:101E1000C160C0E904128161C161FFF7A9FD00281A
:101E200003D0BDE81040FEF791BC10BD0044004057
:101E300088010020FEE7000010B50948FFF734FADA
:101E4000642208490848FFF734FC00F067F900F005
:101E5000BCF800F05BF8BDE8104000F02BB80000C3
:101E6000F8000020D00100204001002008A10F4808
:101E700000F032FC0E4D4FF400544FF47A762146B8
:101E80002846FEF7F2FD304601F0EEFEF7E70000CF
:101E9000436F6E6E656374204D51545473205365C7
:101EA000727665722E2E2E0D0A0000004001002071
:101EB000001001401CB50A480A24CDE90040002367
:101EC000802208A10A4802F0C5FA05480023001D37
:101ED000CDE90040802207A10A4802F0BBFA1CBDF0
:101EE000080000204D795F4C65645F5461736B009E
:101EF0006D1E00084D795F486F6D655F5461736BAF
:101F000000000000491B0008FEE7000010B500219A
:101F1000074C0A46002004EBC1131A54401CC0B2FF
:101F20008028FAD3491CC9B20829F3D310BD000098
:101F30007C02002010B500204FF47A720021491C69
:101F40009142FCD3401C9042F8D3012000F0ACF841
:101F5000BDE81040012000F0AFB870B5002406467F
:101F6000802525FA04F0304000D0012000F0A4F8CC
:101F7000012000F099F8002000F096F8641CE4B20B
:101F8000082CEED3012000F08FF8BDE8704000204F
:101F900000F08AB810B5012000F08EF8012000F0A2
:101FA00083F8002000F088F8BDE81040002000F021
:101FB0007BB810B5002000F07FF8012000F074F825
:101FC000BDE81040012000F077B810B5FFF7B2FF70
:101FD000AE2000F079F8D52000F076F8802000F0EF
:101FE00073F8A82000F070F83F2000F06DF8D320BF
:101FF00000F06AF8002000F067F8402000F064F874
:10200000A12000F061F8C82000F05EF8DA2000F0AE
:102010005BF8122000F058F8812000F055F8CF202E
:1020200000F052F8D92000F04FF8F12000F04CF801
:10203000DB2000F049F8302000F046F8A42000F042
:1020400043F8A62000F040F88D2000F03DF8142061
:1020500000F03AF8BDE81040AF2000F035B810B5F8
:102060000C4640F0B00000F02FF8102040EA1410A9
:1020700000F02AF804F00F00BDE8104000F024B88A
:1020800070B5084D002400212046FFF7E8FF05EB5E
:10209000C410802100F029F8641CE4B2082CF2D3AB
:1020A00070BD00007C02002002464FF480710148A0
:1020B000FEF7E3BC000C014002464FF400710148FA
:1020C000FEF7DBBC000C014010B50446FFF762FFD1
:1020D0007820FFF742FF0020FFF73FFF2046FFF781
:1020E0003CFFBDE81040FFF764BF70B50D460646E3
:1020F000FFF750FF7820FFF730FF4020FFF72DFF5C
:10210000002404E0305DFFF728FF641CE4B2AC4219
:10211000F8D3BDE87040FFF74CBF000070B58CB03D
:102120001C216846FEF7A6F84FF480700225CDE921
:102130000705002407A91048CDE90945FEF7A0FBD3
:102140000F4E0E484722316815C140F2E732E1E8F0
:102150000224802261E8044200F064F860200090CC
:10216000049440F2F310CDE901050022694630687D
:10217000FFF7F5F90CB070BD00080140002C0140DC
:1021800018000020FFF758FE002001F093FDFEE745
:1021900010B54FF0E020006902F0B4F9012803D037
:1021A000BDE8104001F0E2BE10BD30B58FB028216F
:1021B0006846FEF75FF814210AA8FEF75BF80121D4
:1021C0000804CDE900100024029402250491CDE911
:1021D00007504FF4E01009906846FEF71FFE08B163
:1021E00072B6FEE70F20CDE90A054FF48060CDE915
:1021F0000C4002210AA80E94FEF714FD002801D01D
:1022000072B6FEE70FB030BD704700000148FFF71F
:10221000E6B80000F80000200148FFF7E0B8000031
:1022200034020020F0B50268194B1A4C1A4D4FF0D9
:102230008047984205D0B84203D0A04201D0A842BE
:1022400003D122F070064A683243984205D0B84262
:1022500003D0A04201D0A84203D122F44074CA683E
:1022600022434C6922F08002224302608A68C262E3
:102270000A688262984201D10969016301214161C2
:102280000169C90703D0016921F001010161F0BDB5
:10229000002C0140000400400008004010B5846894
:1022A00042EA032224F47F440A432243826010BDA1
:1022B000826822F070020A4342F007018160704791
:1022C00030B5036A026A22F0010202624268846940
:1022D00024F073050C682C4323F002058B682B4314
:1022E0000A4DA8420BD123F00805CB6822F44072B6
:1022F0002B434D6923F0040315438A692A43426046
:10230000846149684163036230BD0000002C0140D4
:1023100030B5026A036A23F01003036243688469DC
:102320000D6824F4E64444EA05248D6822F0200276
:1023300042EA05120B4DA8420ED1CD6822F0800270
:1023400042EA05124D6923F4406343EA85038D692F
:1023500022F0400243EA8503436084614968816357
:10236000026230BD002C014030B5036A026A22F4DB
:10237000807202624268C46923F4007324F073051A
:102380000C682C438D6843EA05230C4DA8420ED1FE
:10239000CD6823F4006343EA05234D6922F44052DB
:1023A00042EA05128D6923F4806342EA0512426015
:1023B000C4614968C163036230BD0000002C014064
:1023C00030B5046A026A22F4805202624268C3692C
:1023D0000D6823F4E64343EA05238D6824F4005492
:1023E00044EA0534064DA84204D14D6922F48042E6
:1023F00042EA85124260C36149680164046230BDEB
:10240000002C014010B5036A046A24F00104046240
:10241000846924F0F00444EA021423F00A020A4317
:102420008461026210BD10B5036A046A24F01004CE
:102430000462846923F0A00324F4704444EA023265
:1024400043EA01118261016210BD10B5406A0021AA
:10245000C185C184FFF755F910BD01680C3151E801
:10246000002F22F4907241E80023002BF5D101687F
:10247000143151E8002F22F0010241E80023002B23
:10248000F5D1016B012909D101680C3151E8002F08
:1024900022F0100241E80023002BF5D1202180F822
:1024A000421000210163704708B590F842102229BC
:1024B00001D0022008BD82684FF480539A4201D1B6
:1024C000016921B1816A9A421BD04AB10AE00268CF
:1024D000816A5268C2F308020A80816A891C08E096
:1024E000026972B10268526802F07F020A70816A62
:1024F000491C8162C18D491E0904090CC18503D0A4
:102500001BE002685268F1E70168CA6822F0200205
:10251000CA600168CA6822F48072CA6001684A69A8
:1025200022F001024A61202180F84210002141631B
:10253000026B012A03D0FFF7B3FA002008BD016344
:1025400001680C3151E8002F22F0100241E800230D
:10255000002BF5D101680A68D20602D50A684968DD
:102560000091818DFFF7CCF8E7E7000070B50446D5
:1025700000680169E26821F4405111430161216959
:10258000A0680843616908432168CA6841F20C6386
:102590009A430243CA6020684169A26921F44071EC
:1025A000114341611E492068884202D1FEF700FCB8
:1025B00001E0FEF7EDFB00EBC00101EB00126068EB
:1025C00064218000B2FBF0F3B3FBF1F36FF0180667
:1025D0007343B2FBF0F5B2FBF0F605EB8305322353
:1025E00003EB0515B5FBF1F5B6FBF1F605F0F005CB
:1025F00005EB0615B2FBF0F6B2FBF0F0B0FBF1F024
:102600006FF01802504306EB800003EB0010B0FBA4
:10261000F1F0216800F00F002844886070BD0000D0
:102620000038014081628285C285002141642221F7
:1026300080F84210016921B10168CA6842F48072D1
:10264000CA6001684A6942F001024A610068C168D3
:1026500041F02001C160002070472DE9F843984601
:1026600017460D460446089E24E0701C22D0FEF753
:1026700009FAA0EB0800B0421AD8CEB12068C168B0
:10268000490717D5802D15D0402D13D00168C943B7
:1026900009070FD401680025406800902046FFF725
:1026A000DCFE0820606484F840500120BDE8F88317
:1026B0000320FBE72068006835EA000004D0002012
:1026C000B842D2D00020F1E70120F9E70148FFF736
:1026D00019B80000400100200FB44FF4007110B58C
:1026E000ADF5007D044684AB6846839A00F01EF881
:1026F00082B24FF47A7369462046FFF7D2F90DF59E
:10270000007D10BC5DF814FBFEE700000FB4054B24
:1027100010B503A9044A029800F004F910BC5DF852
:1027200014FB000041300008AC0000207CB50C0018
:102730001D461646014601D0601E00E00020CDE98E
:102740000010064B6A462946304600F0EBF8002C94
:1027500002D0009A002111707CBD00002B300008CF
:102760000907090E002804DB00F1E02080F80014BE
:10277000704700F00F0000F1E02080F8141D704752
:1027800002E008C8121F08C1002AFAD1704770473A
:10279000002001E001C1121F002AFBD17047000098
:1027A0002DE9FF5F82B00021DDE90430020DDDF884
:1027B00040B0034318D044F61050A2F2FF32424317
:1027C0001514119801281FD0A5EB0B00401C5FEADF
:1027D000000A4FF000064E4FDFF83891B0465046E1
:1027E00015D5CAF1000413E0119801244AA3012869
:1027F00001D16FEA0B010298119AC0E90031C0E9DA
:10280000024206B0BDE8F09FCBF10000DFE70446CE
:102810000021404A491842EB0450CDE9001012E073
:10282000E00707D032463B4640464946FDF7D4FD17
:102830008046894632463B4610461946FDF7CCFD98
:1028400006460F466410002CEAD1DDE90401DDE9FB
:102850000023BAF1000F06DAFDF7BEFD42464B46F3
:10286000FDF7BAFD05E0FDF729FE42464B46FDF7B0
:1028700025FE04460E460022284BFDF78FFE03D8A6
:102880004FF0FF30014607E00022254B204631463D
:10289000FDF7FBFCFDF72EFF102409E0002C0ADBFE
:1028A0000A220023FDF78CFC039B30321A55641E6C
:1028B00050EA0102F2D1641C039AC4F111031444DA
:1028C000119A012A03D0012208430DD10AE00843DE
:1028D00004D000204FF0110B119072E7A3EB0B0511
:1028E0006D1E0DE05B4504DD4FF0000205F10105B2
:1028F00004E003DA4FF00002A5F10105002AECD054
:1029000002981199C0E90231C0E9004579E7000059
:10291000000014400000F03F300000000000F043D1
:102920000000E03F2DE9FF4F95B09A4688460646E5
:102930000025EEE1252877D100242746F94A012118
:10294000039400E0044316F8013F203B01FA03F032
:102950001042F7D130782A2811D06FF02F03307849
:10296000A0F13002092A16D8039A44F0020402EBBF
:10297000820203EB42021044761C0390EFE758F802
:10298000042B0392002A03DA504244F400540390CB
:1029900044F00204761C30782E2816D116F8010F68
:1029A00044F004042A280DD06FF02F023078A0F1F3
:1029B0003003092B09D807EB870302EB4303C71841
:1029C000761CF3E758F8047B761C30786C280FD01F
:1029D00006DC4C2817D068280DD06A2814D104E0F2
:1029E000742810D07A280FD10DE044F400140AE0C6
:1029F00044F4801401E044F440147278824202D11D
:102A000004F58014761C761C307866280BD013DC15
:102A1000582877D009DC002875D04528F6D04628FC
:102A2000F4D047281AD193E118E0632835D0642800
:102A300079D0652812D18BE1702873D008DC672823
:102A4000F1D069286FD06E280DD06F2806D1ACE088
:102A500073282CD0752874D0782853D052461799F3
:102A600090476D1C54E1C4F30250022809D003289A
:102A70000DD0D8F8001004280DD00D6008F104081E
:102A800046E1D8F80010EA17C1E90052F6E7D8F895
:102A900000100D80F2E70D70F0E718F8041B8DF8B8
:102AA000001000208DF80100EB46012003E058F8EB
:102AB00004BB4FF0FF3061074FF0000102D40DE07E
:102AC00009F101018946B9420FDA8145F8DB1BF8AB
:102AD00009100029F4D108E009F101018946814279
:102AE000FADB1BF809100029F6D103985346A0EB36
:102AF000090721463846179A00F080FA284400EB6F
:102B0000090507E044E008E10DE01BF8010B52461F
:102B100017999047B9F10109F7D253462146384633
:102B2000179AF2E039E00A21C4F302524FF0000B89
:102B30000091022A06D058F8040BC117032A09D0C5
:102B40000AE023E008F1070020F00702F2E80201A2
:102B5000904605E000B2C117042A01D140B2C11766
:102B6000002906DA0A460021404261EB02012D22CB
:102B700002E0220504D52B228DF80420012203E077
:102B8000E20701D02022F7E7914657E00A2100E052
:102B900010214FF0000B00910BE010214FF0000BC3
:102BA00044F004040827009103E008204FF0000BD4
:102BB0000090C4F30252022A05D058F8040B0021F9
:102BC000032A08D008E008F1070020F00702F2E825
:102BD0000201904603E080B2042A00D1C0B24FF057
:102BE000000922072AD53278702A07D0DDF800C004
:102BF0008CF0100C5CEA0B0C05D00EE040228DF836
:102C00000420012208E050EA010306D030238DF8A9
:102C100004308DF8052002229146009B83F00803C2
:102C200053EA0B030AD150EA010201D1620705D52C
:102C300030228DF804204FF001097F1E3278582A87
:102C400004D039A20C920CAA02920BE03BA2F9E745
:102C50005B46009AFDF7B4FA0C9B9B5C029A521EED
:102C60000292137050EA0102F2D1029804A9081AE4
:102C700000F1200B600702D524F4803400E0012726
:102C80005F4502DDA7EB0B0000E0002000EB0B012D
:102C9000009003984944401A0390E00306D4534639
:102CA0002146179A039800F0A9F90544002706E089
:102CB00001A85246C05D179990476D1C7F1C4F4577
:102CC000F6DBE0030CD553462146179A039800F033
:102CD00095F9054404E030205246179990476D1C41
:102CE0000099481E00900029F5DC08E0029802993E
:102CF00052460078491C0291179990476D1CBBF110
:102D00000001ABF1010BF1DC5BE100F065F905447A
:102D1000761C307800287FF40DAE19B02846BDE847
:102D2000F08F000009280100303132333435363756
:102D30003839616263646566000000003031323307
:102D400034353637383941424344454600000000A7
:102D5000600700D4062708F1070020F00700F0E81C
:102D60000223804603F0004C5FEA0C0001D097A0DC
:102D700009E0200501D596A005E0E00701D095A067
:102D800001E0AFF24C001390307823F00043652847
:102D90000CD006DC452809D046281DD047287FD115
:102DA0003BE0662818D067287AD136E00021112F41
:102DB00001DB112000E0781CCDE9000104A90CA87A
:102DC000FFF7EEFCDDE90D010C9A4FF0000B07F167
:102DD0000109109200914EE04FF000400097CDE9BC
:102DE000011004A90CA8FFF7DBFCDDE90D020C9B28
:102DF0000F994FF0000B91461093009211B9791C76
:102E000000EB0109B7EB090003D4C0F1FF3B07F168
:102E10000109A9EB0700019042E0012F00DA012728
:102E20000021112F01DD112000E03846CDE900011D
:102E300004A90CA8FFF7B4FCDDE90D010C9A009180
:102E40004FF0000BB946109221070FD4009A4A4563
:102E500003DA914601E0A9F10109B9F1010F05DD9D
:102E6000109AA9F10101515C3029F4D0B84202DA7C
:102E700010F1040F03DA0121CDE9011010E0002860
:102E800003DC8344A9EB000102E0411C494500DD5D
:102E90008946A0EB0B00401C01904FF000400290CF
:102EA000200705D40198484502DB4FF0FF30019020
:102EB00000208DF84B0002980DF14B07B0F1004F48
:102EC00025D002200C902B200D90029800280CDABF
:102ED000404202902D200D9007E00A210298FDF754
:102EE00075FB3031029007F8011D0C99481E0C90BB
:102EF0000029F2DC02980028EFD1791E0D980870A5
:102F0000307800F0200040F0450007F8020D11A8CD
:102F1000C01BC01D02901398007800B1012000EB87
:102F20000901019801EBE071029801440398401AED
:102F3000401E0390E00306D453462146179A039897
:102F400000F05CF805441398007818B152461799C0
:102F500090476D1CE00323D553462146179A0398EA
:102F600000F04CF805441BE0BBF1000F07DB0098B4
:102F7000584504DD1098179910F80B0001E01799D7
:102F800030205246904701980BF1010B401E05F18D
:102F90000105019004D12E205246179990476D1CCF
:102FA000B9F10001A9F10109DEDC05E017F8010B18
:102FB0005246179990476D1C0299481E02900029AD
:102FC000F4DC53462146179A03989EE62D00000034
:102FD0002B000000200000002DE9F04104460025F0
:102FE0001E461746880404D405E039462020B04721
:102FF0006D1C641EF9D52846BDE8F0812DE9F0412D
:10300000044600251E469046C80301D5302700E03F
:103010002027880404D505E041463846B0476D1C9A
:10302000641EF9D52846BDE8F0814A68002A06D01A
:103030000A68531C0B6010704868401E4860704757
:1030400002490A681206FCD5486070470038014002
:10305000FDF726FDFFF7A9F8FEF7AEFDFEF7B2FE7D
:10306000FEF7CCFEFEF77CFEFEF716FE00F006F83B
:10307000FEF792FD00F014F8FEE70000EFF3058084
:1030800010B16FF0050070470448016811B14FF0AE
:10309000FF30704701210160002070477C00002054
:1030A00010B5EFF3058010B16FF0050010BD0848B2
:1030B0000168012902D04FF0FF3010BD054A002100
:1030C00082F8141D0221016000F07EFE002010BD78
:1030D0007C0000200BE000E02DE9FF414FEA0103F6
:1030E0004FF00005EFF30581039549BB40B38027FE
:1030F000182100244AB3166806B1344696691EB1F9
:103100003146761E382E02D21679F60703D00020FB
:1031100004B0BDE8F081566906B1B708D2F808C01E
:10312000BCF1000F0DD0D5685C2D18D312693AB1EF
:1031300036B18DE806103A46214601F0B8F9039001
:103140000DE0D6685EB912694AB903AACDE900124A
:10315000BAB2214601F07EF9012800D00395039808
:10316000D6E700002DE9F041134C0F460546E6680E
:103170002068001D00F042FC681C07D137B12168AF
:10318000BDE8F0410D48091D00F089BC20683544B8
:10319000B5424560216805D2A06BBDE8F041091D2C
:1031A00000F065BC606B091D00F061FCA06A8542FF
:1031B00000D2A562BDE8F0812C0000206C0B00203D
:1031C0002DE9F041054600F077FC2D4CA068401C2D
:1031D000A06020682B4F10B1606930B32BE02560F0
:1031E000A068012827D1002606EB860007EB8000A7
:1031F00000F02FFC761C382EF6D3234800F029FC73
:103200002148143000F025FC1F48283000F021FC34
:103210001D483C3000F01DFC1B48503000F019FCEC
:10322000194860631430A06305E02068E96AC06A49
:10323000884200D82560606A401C60626864E86A61
:103240002169884200D9206100EB800007EB8000F3
:10325000291D00F024FC00F04FFC606900280CD010
:103260002068E96AC06A884207D208494FF0805056
:103270000860BFF34F8FBFF36F8FBDE8F081000090
:103280002C000020BC0600201C0B002004ED00E0F8
:1032900038B500F011FC104C2068C8B90F4800F098
:1032A000D8FB0E48143000F0D4FB0C48E06014301A
:1032B00020610A4B0020F03B009003F150021021E6
:1032C0000A2000F069FE206010B105A100F096FC14
:1032D000BDE8384000F010BC68000020700C0020F1
:1032E000546D72510000000030B4026C0B46002A8D
:1032F0000BD0C1681144C1608468A14201D3016848
:10330000C16030BC1846FCF79CBF30BC70472DE94B
:10331000F041856B174604460026026C82B1C7B1A6
:10332000E068FCF78EFFE168206C091AE160226812
:10333000914202D2A168081AE060022F16D017E06D
:103340002068A8B9A06801F055F906460020A060E1
:103350000EE06068FCF775FF216C606808446060EF
:10336000A168884204D32068606001E005B16D1E49
:103370006D1CA5633046BDE8F08110B5044690F899
:10338000590058B101280CD002280FD0502080F3EA
:103390001188BFF34F8FBFF36F8FFEE7206B00F0F4
:1033A000BFFB2046BDE8104000F0BABB10BD0000D6
:1033B00010484FF44061420706D0C01D0D4920F06F
:1033C0000700411AC1F540610B4A00230144C2E9DC
:1033D00000030839183A21F0070111604B600B60B7
:1033E0000B1AC0E9001393604FF000405360506126
:1033F000704700005013002098000020154E164C16
:10340000A6F29C474FF08058DFF8509012E000BFC2
:1034100000F052FBF068C568281D00F0EFFAA068C4
:10342000401EA0606068401E606000F065FB28469A
:10343000FFF7A3FF60680028EAD13868012805D9A2
:10344000C9F80080BFF34F8FBFF36F8F00F000FB10
:10345000F0E70000580B00202C00002004ED00E0F5
:1034600070B51D46049C51B1C4F80020C4E90F0199
:103470000121204600F0C4FD84F84C5070BD24604A
:10348000F4E700002DE9F05F8846DDE90B9415466E
:10349000834691009A460A9EA522206BFCF7E3FE24
:1034A0006FF00301206B01EB8501084420F0070752
:1034B000780707D0502080F31188BFF34F8FBFF3F8
:1034C0006F8FFEE70025B8F1000F0FD05FF000000E
:1034D000221818F8001082F8341018F8001011B1F2
:1034E000401C1028F4D384F8435001E084F8345091
:1034F000382E00D33726E662C4E91365201D00F09C
:10350000B3FA04F1180000F0AFFA2461C6F13800F4
:103510006462A061656584F8585052465946384641
:1035200000F05AFA2060B9F1000F01D0C9F800404C
:10353000BDE8F09F30B5114900E011460A688242AB
:10354000FBD34B685C18844203D140681844486040
:10355000084643681C18944209D1084C183C24685A
:10356000A24209D052681A4442600A681268026096
:10357000814200D0086030BD0460F9E79800002067
:1035800070B5002441600B4D0061914206D8D11AFC
:103590008269914206D2011D286907E09A4203D24E
:1035A000994201D3012403E0011DE86800F05FFAAD
:1035B000204670BD6800002010B5044600F07CFA7B
:1035C000A06B28B15FF0000400F096FA204610BD11
:1035D0000124F9E730B589B03C4D6EE0049800282D
:1035E00006DADDE90601059A90470498002864DBB5
:1035F000069C606910B1201D00F000FA03A800F0DD
:10360000D7F8024604980A2857D2DFE800F00505EB
:10361000052D334A05052D3394F8280040F00100AC
:1036200084F828000599A069059B01442046FFF70E
:10363000A7FF68B3216A2046884794F8280040070E
:103640003BD5002000900598A16900234218194637
:10365000204601F0D9F8D8B9502080F31188BFF383
:103660004F8FBFF36F8FFEE714F8280F20F0010093
:10367000207022E094F8280040F0010084F828002F
:103680000598A06128B1811813462046FFF778FFFE
:1036900013E0502080F31188BFF34F8FBFF36F8F7B
:1036A000FEE794F82800810703D4204600F038FA9A
:1036B00003E020F0010084F82800002204A9286813
:1036C00000F0F2FD002889D109B030BD680000206B
:1036D0002DE9FC410F46054600F0BAFB01A800F0B9
:1036E00067F80446019818B100F0FCFFBDE8FC81C2
:1036F000254EAFB130690068D0B30027291B3A4688
:10370000306800F08FFA00F0EDFF0028EED11F497D
:103710004FF080500860BFF34F8FBFF36F8FE5E726
:10372000A542EBD800F0DEFFF0682746C068C46809
:10373000201D00F063F994F82800410719D5A0690D
:103740002B4641193A462046FFF71AFFA8B1002040
:103750000346014600902A46204601F055F860B91C
:10376000502080F31188BFF34F8FBFF36F8FFEE7B8
:1037700007E020F0010084F82800216A20468847ED
:10378000B4E70127BAE700006800002004ED00E07C
:103790000648416B096829B1416BC968C968496825
:1037A000816270474FF0FF31FAE700002C000020E3
:1037B00070B5054600F0B4FE064E0446B06884427B
:1037C00003D200F009F8012000E000202860204624
:1037D000B46070BD68000020F8B5194D20E0C068E5
:1037E000C4680668201D00F009F9216A2046884750
:1037F00094F82800400713D5A0693044B04206D998
:1038000024616060211DE86800F031F908E00020C3
:103810000346014600903246204600F0F5FF38B1DD
:10382000E86801680029DAD12969C5E90310F8BD03
:10383000502080F31188BFF34F8FBFF36F8FFEE7E7
:103840006800002008484068401C4FF0500080F39A
:10385000118804D0BFF34F8FBFF36F8FFEE7BFF324
:103860004F8FBFF36F8FFEE7A0000020074CE0688A
:10387000016841B1C0680021D0F80000FFF728FFBF
:10388000FFF7A8FEF3E701210020F7E7680000201A
:103890002DE9F041044600F00FF994F9455004F188
:1038A000240609E0606A48B1304600F0E3FE08B142
:1038B00000F050FA6D1E6DB2002DF3DC4FF0FF36B4
:1038C00084F8456000F018F900F0F6F894F94450D7
:1038D00004F1100709E0206948B1384600F0CAFE3B
:1038E00008B100F037FA6D1E6DB2002DF3DC84F8DC
:1038F0004460BDE8F04100F0FFB800002DE9F04160
:103900000546002700F0A4FA324E306808B9FFF7E8
:103910004FFD706905424ED1C5B3083568070ED01A
:1039200005F00700C0F108000544680707D05020E3
:1039300080F31188BFF34F8FBFF36F8FFEE72DB376
:103940007068854237D82348183001460C6801E07A
:1039500020460C466168A94202D221680029F7D1AD
:1039600031688C4227D00768216801606068083799
:10397000411B10290FD96019420708D0502080F34D
:103980001188BFF34F8FBFF36F8FFEE713E04160E5
:103990006560FFF7CFFD61687068401A7060B268BB
:1039A000904200D2B060706901430020C4E9000178
:1039B000F068401CF06000F095FE780707D05020BA
:1039C00080F31188BFF34F8FBFF36F8FFEE7384648
:1039D000BDE8F0818000002010B5031F4FF0807417
:1039E0001C601B1F21F001011960191F024B0B60A5
:1039F000143940380A6010BD45380008D0E901325A
:103A000001699A60D0E901235A604A68824201D173
:103A100082684A60002202610868401E08600868E7
:103A200070470000034B036003F15C0008608020D6
:103A300010607047980C0020044B036003F15C0099
:103A400008604FF48070106070470000F40E002092
:103A5000704700F108014FF0FF32C0E90112C16068
:103A6000016100210160704700210161704730B59C
:103A70000B685A1C02D000F1080202E0026904E05F
:103A80002246546825689D42FAD953684B60996074
:103A90008A60516008610168491C016030BD42685C
:103AA0004A6093688B60936859609160086101680F
:103AB000491C016070470000502080F31188BFF35B
:103AC0004F8FBFF36F8F0A494868401C4860012838
:103AD0000CD10848006810F0FF0F07D0502080F389
:103AE0001188BFF34F8FBFF36F8FFEE77047000061
:103AF000A000002004ED00E00849486828B1401EFD
:103B0000486001D180F311887047502080F31188FC
:103B1000BFF34F8FBFF36F8FFEE70000A0000020C0
:103B200070B500282AD0164DA0F1080460686969B4
:103B3000084207D1502080F31188BFF34F8FBFF3A5
:103B40006F8FFEE722683AB1502080F31188BFF3EF
:103B50004F8FBFF36F8FFEE78843606000F078F906
:103B600060686968084468602046FFF7E3FC2869DC
:103B7000401C2861BDE8704000F0B4BD70BD00007D
:103B8000800000204FF0E0200021016181610549A3
:103B90004FF47A720968B1FBF2F1491E41610721C5
:103BA000016170472800002010B5FCF7F3FA1149B5
:103BB00010280ED300F1E02090F8F0030A7890422C
:103BC00007D2502080F31188BFF34F8FBFF36F8F60
:103BD000FEE709480068896800F4E060884207D978
:103BE000502080F31188BFF34F8FBFF36F8FFEE734
:103BF00010BD0000A00000200CED00E010B5084B47
:103C0000002200BF53F832401CB1521C082AF9D3DD
:103C100010BD43F8321003EBC201486010BD000034
:103C20007C06002070B515460E460446FFF744FF9B
:103C300094F944100020491C01D184F8440094F9FF
:103C40004510491C01D184F84500FFF755FFA06BD2
:103C500028B92A46314604F1240000F099F820469C
:103C6000BDE87040FFF714BE10B5020014D00F4835
:103C7000006B38B1502080F31188BFF34F8FBFF332
:103C80006F8FFEE700F0E4F800211046FFF76AFAB4
:103C900000F028FD002807D105494FF0805008604A
:103CA000BFF34F8FBFF36F8F10BD00002C000020BB
:103CB00004ED00E070B50546FFF7FEFE1E4C05B9A9
:103CC0002568281DFFF79AFEA86A18B105F11800AB
:103CD000FFF794FE606A401C60622068854207D14D
:103CE000291D1648FFF7DBFE6068401C606007E096
:103CF000A068401EA0602846FFF73FFBFFF748FD85
:103D0000FFF7FAFE6069002814D02068854211D1BF
:103D1000206B38B1502080F31188BFF34F8FBFF371
:103D20006F8FFEE706494FF080500860BFF34F8F5A
:103D3000BFF36F8F70BD00002C000020580B0020D7
:103D400004ED00E002490A6A0260C96841607047F8
:103D50002C00002001490120C86170472C00002080
:103D600010B50C4650B1094909681831FFF77FFEBC
:103D70002046BDE810400121FFF7F4B9502080F340
:103D80001188BFF34F8FBFF36F8FFEE72C00002029
:103D900070B514460D4668B10A4909681831FFF735
:103DA0007EFE0CB14FF0FF3521462846BDE870403D
:103DB000FFF7D8B9502080F31188BFF34F8FBFF3BE
:103DC0006F8FFEE72C00002030B587B000240394ED
:103DD00005AA04A903A80494FFF724FEDDE9030162
:103DE0000094CDE90110002315A11748059A00F0B1
:103DF0005EFB164D0028E8621FD000F0D5FC0128BC
:103E000009D0401C19D1502080F31188BFF34F8F87
:103E1000BFF36F8FFEE7502080F31188BFF34F8F01
:103E2000BFF36F8F4FF0FF30A86201206861EC6034
:103E300007B0BDE8304000F045B807B030BD000025
:103E400049444C4500000000FD3300082C000020D0
:103E50000248016B491C0163704700002C000020E0
:103E6000164810B5016B11B10121C16110BD0021CF
:103E7000C1610169124A01E0B9B1491E01EB810338
:103E800052F82330002BF7D001EB810302EB8302C1
:103E900002F1080453685B685360A34201D15B6878
:103EA0005360DA680260016110BD502080F3118810
:103EB000BFF34F8FBFF36F8FFEE700002C00002091
:103EC000BC0600201CB5264908780190FF20087028
:103ED00008788DF800009DF800009DF8002000F0A3
:103EE000F000904207D0502080F31188BFF34F8F2D
:103EF000BFF36F8FFEE79DF800001A4C00F05000F2
:103F000020700720A06005E09DF8002052008DF889
:103F10000020401E9DF800201206F5D4A060032862
:103F200007D0502080F31188BFF34F8FBFF36F8FFE
:103F3000FEE74FF44070A060019808700A480168DD
:103F400041F470010160016841F070410160FFF7C8
:103F500019FE00206060FCF7E7F800201CBD00009F
:103F600000E400E0A000002020ED00E010B55020AB
:103F700080F31188BFF34F8FBFF36F8F00F0D6FA35
:103F800018B104494FF080500860002080F3118878
:103F900010BD000004ED00E038B5049D18B153B128
:103FA000CAB181B120E0502080F31188BFF34F8F58
:103FB000BFF36F8FFEE7502080F31188BFF34F8F60
:103FC000BFF36F8FFEE7502080F31188BFF34F8F50
:103FD000BFF36F8FFEE739B1502080F31188BFF334
:103FE0004F8FBFF36F8FFEE750241C46012384F8E8
:103FF00046302B460094FFF733FA204638BD0000C8
:1040000070B50D46040025D0FFF756FDD4E90F200A
:10401000216802FB0011A1600021A1632168616099
:104020000A46D4E90F01401E00FB0121E160214650
:104030004FF0FF3001F8440F487004F110008DB1CB
:10404000FFF707FD04F12400FFF703FDFFF754FD20
:10405000012070BD502080F31188BFF34F8FBFF354
:104060006F8FFEE721690029F0D000F003FB0028E4
:10407000ECD004494FF080500860BFF34F8FBFF37E
:104080006F8FE3E704ED00E02DE9FF4782B01D46A6
:104090008A464FF00008040003D0BAF1000F08D0A0
:1040A00011E0502080F31188BFF34F8FBFF36F8F63
:1040B000FEE7206C38B1502080F31188BFF34F8F9A
:1040C000BFF36F8FFEE7022D0AD1E06B012807D006
:1040D000502080F31188BFF34F8FBFF36F8FFEE73F
:1040E00000F010FA3F4F4FF000094FF0805648B9EA
:1040F000049838B1502080F31188BFF34F8FBFF37D
:104100006F8FFEE7FFF7D8FCA06BE16B884207D307
:10411000022D05D00498D0B1B8F1000F1AD01EE0DE
:104120002A4651462046FFF7F2F8616A19B104F1B8
:10413000240000F09FFA20B13E60BFF34F8FBFF321
:104140006F8FFFF7D9FC012006B0BDE8F087FFF7BD
:10415000D3FC22E06846FFF7F5FD4FF00108FFF7BA
:10416000CBFCFFF775FEFFF7A7FC94F94400401C59
:1041700001D184F8449094F94500401C01D184F8A1
:104180004590FFF7B9FC04A9684600F029F930B161
:104190002046FFF77DFB00F0A5FA0020D4E7FFF7EB
:1041A0008BFCA06BE16B884213D1FFF7A5FC04F1F7
:1041B00010000499FFF7D4FD2046FFF769FB00F0DB
:1041C00091FA00289ED13E60BFF34F8FBFF36F8FEF
:1041D00098E7FFF791FC2046FFF75AFB00F082FAC0
:1041E00090E7000004ED00E02DE9F0471F469046FF
:1041F0008946040003D0B9F1000F08D011E0502027
:1042000080F31188BFF34F8FBFF36F8FFEE7206CF1
:1042100038B1502080F31188BFF34F8FBFF36F8FF9
:10422000FEE7022F0AD1E06B012807D0502080F36F
:104230001188BFF34F8FBFF36F8FFEE7FFF7B4FC1A
:104240005020EFF3118680F31188BFF34F8FBFF337
:104250006F8FA06BE16B884206D3022F04D0002041
:1042600086F31188BDE8F08794F94550A06B3A4673
:1042700049462046FFF74BF8681C04D06D1C84F8B3
:1042800045500120ECE7606A0028FAD004F12400D0
:1042900000F0F0F90028F4D0B8F1000FF1D00121BE
:1042A000C8F80010EDE700002DE9F747002683B0BD
:1042B0008A46040003D0BAF1000F08D011E0502064
:1042C00080F31188BFF34F8FBFF36F8FFEE7206C31
:1042D00038B1502080F31188BFF34F8FBFF36F8F39
:1042E000FEE700F00FF9DFF8F4804FF000094FF01F
:1042F000805748B9059838B1502080F31188BFF332
:104300004F8FBFF36F8FFEE7FFF7D6FBA56BC5B1ED
:1043100051462046FEF7E8FF6D1EA563206950B1A7
:1043200004F1100000F0A6F928B1C8F80070BFF33E
:104330004F8FBFF36F8FFFF7DFFB012006B0BDE8A3
:10434000F087059808B11EB106E0FFF7D5FB27E01E
:104350006846FFF7F7FC0126FFF7CEFBFFF778FD75
:10436000FFF7AAFB94F94400401C01D184F8449063
:1043700094F94500401C01D184F84590FFF7BCFB3F
:1043800005A9684600F02CF8002820460AD0FFF75F
:104390007FFA00F0A7F92046FFF70EF90028B3D006
:1043A0000020CBE7FFF708F990B104F1240005994C
:1043B000FFF7D6FC2046FFF76BFA00F093F90028D0
:1043C000A2D1C8F80070BFF34F8FBFF36F8F9BE788
:1043D0002046FFF75DFA00F085F995E704ED00E06F
:1043E0002DE9F0410C46050011D0C4B1FFF764FB84
:1043F000174BDA686E682068911B471C17D02F682E
:104400001B6A9F4219D0964217D8012410E0502011
:1044100080F31188BFF34F8FBFF36F8FFEE75020FB
:1044200080F31188BFF34F8FBFF36F8FFEE7002437
:10443000FFF762FB2046BDE8F081884205D9401AAB
:1044400020602846FFF77EFCF1E700202060DCE7D3
:104450002C0000202DE9FF5F8346DDE90E87994699
:1044600016468A469000FFF749FA05001CD05C20EA
:10447000FFF744FA040014D00020256384F85900A3
:10448000CDE90240CDE900874B46324651465846B9
:10449000FEF7F8FF2046FEF793FE012004B0BDE8CA
:1044A000F09F2846FFF73CFB4FF0FF30F6E7F0B5F2
:1044B00085B0DDE90B640A9DA6B1DCB15C270097ED
:1044C0002663022684F85960002604AFCDE902462F
:1044D000CDE90057FEF7D6FF2046FEF771FE04989F
:1044E00005B0F0BD502080F31188BFF34F8FBFF3AC
:1044F0006F8FFEE7502080F31188BFF34F8FBFF31B
:104500006F8FFEE70548416919B1006B18B10020B3
:104510007047012070470220704700002C000020E7
:104520000148C068704700002C0000202DE9F041D0
:104530002E4C0027206B28B1A069401CA061384692
:10454000BDE8F081E668761CE66013D1606B006818
:1045500038B1502080F31188BFF34F8FBFF36F8FB6
:10456000FEE7606BA16B6163A063206A401C206260
:10457000FFF70EF9A06ADFF87880864209D3606BF6
:104580000068A0B1606BC068C5686868864211D2D7
:10459000A0622068C06A00EB800158F82100012861
:1045A00000D90127E0690028C9D00127C7E74FF0EB
:1045B000FF30EDE7281DFFF721FAA86A18B105F1D1
:1045C0001800FFF71BFAE86A2169884200D92061C8
:1045D00000EB800108EB8100291DFFF760FAE86A13
:1045E0002168C96A8842CAD30127C8E72C00002085
:1045F000BC06002070B504004FF0000133D01B4D05
:104600002868844207D0502080F31188BFF34F8F71
:10461000BFF36F8FFEE7206D38B1401E2065E36C5D
:10462000E26A9A421FD040B11DE0502080F3118809
:10463000BFF34F8FBFF36F8FFEE7201DFFF7DEF94B
:10464000E06CE062C0F13800A061E06A296988424C
:1046500000D92861064900EB800001EB8000211D94
:10466000FFF71DFA0121084670BD00002C00002054
:10467000BC06002070B5C068C46854B104F11800CD
:104680000646FFF7BBF9144D286B50B1314613486D
:1046900015E0502080F31188BFF34F8FBFF36F8F69
:1046A000FEE7201DFFF7AAF9E06A2969884200D9D0
:1046B00028610B4900EB800001EB8000211DFFF712
:1046C000EEF9E06A2968C96A884202D90120E861E6
:1046D00070BD002070BD00002C000020440B0020A5
:1046E000BC0600202DE9F0472C4D00242746286BFE
:1046F00038B1FFF7E1F9286B401E2863286B40B101
:1047000046E0502080F31188BFF34F8FBFF36F8FC7
:10471000FEE7A968224E0120D1B3A6F59169804633
:104720003068E0B1F068C46804F11800FFF766F97A
:10473000201DFFF763F9E06A2969884200D92861E2
:1047400000EB800109EB8100211DFFF7A8F9E06A69
:104750002968C96A8842E3D3C5F81C80E0E70CB138
:10476000FFF716F8AC694CB14FEA0806FFF7DEFE1A
:1047700000B1EE61641EF9D10020A861E86938B18A
:104780000849012738070860BFF34F8FBFF36F8FC9
:10479000FFF7B2F93846BDE8F08700002C00002092
:1047A000440B002004ED00E010B586B0FEF770FD6C
:1047B000114C2068B8B100200390049005AA04A908
:1047C00003A8FFF739F9DDE9032102208DE807008E
:1047D00000230AA10B48059AFFF769FE606010B13B
:1047E00006B0012010BD502080F31188BFF34F8F19
:1047F000BFF36F8FFEE7000068000020546D722049
:10480000537663006D3800082DE9FF411E461346BC
:1048100002000A9D4FF0000016D0144C2768002FAC
:104820000FD0CDE900130292062917DAFFF76AFECE
:1048300002284FF000030FD0002269462068FFF7DE
:1048400023FC04B0BDE8F081502080F31188BFF351
:104850004F8FBFF36F8FFEE72A46EEE70023324605
:1048600069463846FFF7C0FCEBE70000680000200F
:10487000C048000800000000000000000000000028
:10488000000000000002000018000000000000000E
:1048900000000000010202030405060708090A0BD4
:1048A0000C0D0E0F101000000000000000000102AF
:1048B00003040607080900000000010203040000C9
:1048C000416C6C5F5461736B496E69740000000049
:1048D000F048000800000020B00000008027000819
:1048E000A0490008B0000020A02200009027000886
:1048F00000000000000000000000000000000000B8
:104900000C12140000000000B000002001000000A4
:10491000100000000000000000127A0000000000FB
:104920000000000000000000000000000000000087
:104930000000000000000000000000000000000077
:104940000000000000000000000000000000000067
:104950000000000000000000000000000000000057
:104960000000000000000000000000000000000047
:104970000000000000000000000000000000000037
:104980000000000000000000000000000000000027
:1049900000000000AAAAAAAA00000000000000006F
:04000005080000ED02
:00000001FF
